:100000000C9463000C948B000C948B000C94C3052F
:100010000C94C3050C94C3050C948B000C948B00BA
:100020000C948B000C948B000C948B000C943B066E
:100030000C948B000C948B000C948B000C948B0014
:100040000C9479050C948B000C9447050C942105B5
:100050000C948B000C948B000C948B000C948B00F4
:100060000C948B000C948B000000000024002700EF
:100070002A0000000008000201000003040700003D
:1000800000000000000000000000230026002900FE
:1000900000000000250028002B00040404040404D0
:1000A0000404020202020202030303030303010227
:1000B00004081020408001020408102001020408F6
:1000C0001020F7068A0A11241FBECFEFD8E0DEBF4A
:1000D000CDBF11E0A0E0B1E0E2E7FDE102C0059094
:1000E0000D92AA3BB107D9F723E0AAEBB1E001C01A
:1000F0001D92AE30B207E1F710E0C2E6D0E004C0D6
:100100002197FE010E94B40CC136D107C9F70E94A5
:1001100031080C94AC0E0C940000CF92DF92EF9259
:10012000FF92DC01A03282E0B807D4F5A53BB1050F
:1001300014F0A4EBB0E04091080328E830E0241B61
:10014000310947FD3395220F331F220F331F6901F9
:10015000330FEE08FF084091090328E532E0241B25
:10016000310947FD3395220F331F220F331F032E12
:10017000000C440B550B2C193D094E095F09B7FFC4
:1001800002C0B0E0A0E00E94D30B24EB30E040E0DE
:1001900050E00E94A90BC20ED31EE41EF51ED6012C
:1001A000E0910703EC3080F52091080388E890E0A7
:1001B000821B910927FD9395880F991F880F991F1E
:1001C000A817B90784F02091090388E592E0821B03
:1001D000910927FD9395880F991F880F991FA817DC
:1001E000B9070CF4CD010297880F991F4FB7F89407
:1001F0002E2F30E0F901EE0FFF1FE20FF31FEB553A
:10020000FD4F928381834FBFFF90EF90DF90CF909F
:100210000895AF92BF92CF92DF92EF92FF920F9329
:100220001F93CF93DF936C017B018B01040F151F8C
:10023000EB015E01AE18BF08C017D10759F06991F4
:10024000D601ED91FC910190F081E02DC601099558
:10025000892B79F7C501DF91CF911F910F91FF9005
:10026000EF90DF90CF90BF90AF900895FC01538D39
:10027000448D252F30E0842F90E0821B930B541780
:1002800010F0CF96089501970895FC01918D828D0D
:10029000981761F0A28DAE0FBF2FB11D5D968C91A6
:1002A000928D9F5F9F73928F90E008958FEF9FEFE5
:1002B0000895FC01918D828D981731F0828DE80FA1
:1002C000F11D858D90E008958FEF9FEF0895FC015B
:1002D000918D228D892F90E0805C9F4F821B910928
:1002E0008F739927089588E092E00E94670121E0CA
:1002F000892B09F420E0822F089580E090E0892B7B
:1003000029F00E94730181110C9400000895FC01F2
:10031000A48DA80FB92FB11DA35ABF4F2C91848D66
:1003200090E001968F739927848FA689B7892C93C3
:10033000A089B1898C91837080648C93938D848D16
:10034000981306C00288F389E02D80818F7D808319
:100350000895EF92FF920F931F93CF93DF93EC01D9
:1003600081E0888F9B8D8C8D98131AC0E889F9895C
:10037000808185FF15C09FB7F894EE89FF8960835F
:10038000E889F98980818370806480839FBF81E0E0
:1003900090E0DF91CF911F910F91FF90EF90089522
:1003A000F62E0B8D10E00F5F1F4F0F731127E02EFD
:1003B0008C8D8E110CC00FB607FCFACFE889F98935
:1003C000808185FFF5CFCE010E948701F1CFEB8DB3
:1003D000EC0FFD2FF11DE35AFF4FF0829FB7F89409
:1003E0000B8FEA89FB8980818062CFCFCF93DF9327
:1003F000EC01888D8823B9F0AA89BB89E889F9893D
:100400008C9185FD03C0808186FD0DC00FB607FC71
:10041000F7CF8C9185FFF2CF808185FFEDCFCE01A4
:100420000E948701E9CFDF91CF91089590E0FC0110
:10043000EE58FF4F2491FC01E255FF4F3491FC012F
:10044000E656FF4FE491EE23C9F0222339F0233022
:1004500001F1A8F4213019F1223029F1F0E0EE0F7A
:10046000FF1FE057FF4FA591B4918FB7F894EC911F
:10047000611126C030953E233C938FBF08952730ED
:10048000A9F02830C9F0243049F7809180008F7D91
:1004900003C0809180008F7780938000DFCF84B588
:1004A0008F7784BDDBCF84B58F7DFBCF8091B0008B
:1004B0008F778093B000D2CF8091B0008F7DF9CF3D
:1004C0003E2BDACFCF93DF9390E0FC01E255FF4F54
:1004D000249186569F4FFC0184918823D1F090E0AF
:1004E000880F991FFC01E859FF4FA591B491FC01B9
:1004F000E057FF4FC591D49161110EC09FB7F8949A
:100500008C91E22FE0958E238C932881E223E8835F
:100510009FBFDF91CF9108958FB7F894EC91E22BB4
:10052000EC938FBFF6CF8E3008F08E5087708064CA
:1005300080937C0080917A00806480937A0080911F
:100540007A0086FDFCCF8091780090917900089523
:100550003FB7F8948091000290910102A0910202AD
:10056000B091030226B5A89B05C02F3F19F0019654
:10057000A11DB11D3FBFBA2FA92F982F8827BC01FD
:10058000CD01620F711D811D911D42E0660F771F25
:10059000881F991F4A95D1F708958F929F92AF9225
:1005A000BF92CF92DF92EF92FF924B015C010E94CB
:1005B000A8026B017C010E94A8026C197D098E09BA
:1005C0009F09683E734081059105A8F321E0821AD6
:1005D0009108A108B10888EEC80E83E0D81EE11C7E
:1005E000F11C81149104A104B10429F7FF90EF904C
:1005F000DF90CF90BF90AF909F908F900895209103
:100600000602309107022817390771F4909104020D
:1006100080910502981741F0E0910402F0E0E55462
:10062000FE4F808190E008958FEF9FEF0895089529
:10063000EF92FF920F931F93CF93DF93DC015C96B1
:10064000ED90FC905D97E114F10479F481E090E085
:1006500013969C938E93129790E080E0DF91CF9158
:100660001F910F91FF90EF9008955196ED91FC919D
:10067000529750968C915097982F90950FB75E9601
:100680002C915E97122F127021FD6095F8942081B5
:10069000112319F1282B2083E7012197F1F728E096
:1006A000462F50E0308160FF1AC0382B3083E701BD
:1006B0002197F1F7BA0175956795215089F71123B4
:1006C00081F08081892380830FBF5C968D919C91FE
:1006D0000197F1F781E090E0C1CF2923DCCF3923E6
:1006E000E5CF9081892BEFCF209106023091070250
:1006F0002817390771F4809105022091040290E0D7
:10070000805C9F4F821B910960E470E00E94850C21
:10071000089590E080E0089520910602309107024C
:1007200028173907B9F490910402809105029817AF
:1007300089F0E0910402F0E0E554FE4F80812091C1
:10074000040230E02F5F3F4F2F73332720930402C2
:1007500090E008958FEF9FEF0895089590E080E076
:100760000895CF93DF93EC0160E08E810E94160222
:1007700061E08E810E94160260E08E810E94160266
:100780008BE891E00197F1F7DF91CF910895CF9237
:10079000DF92EF92FF920F931F93CF93DF936C0141
:1007A0007C0187E0E80EF11CD0E0C0E0062F10E0ED
:1007B000B8010C2E02C0759567950A94E2F7617036
:1007C000F70181917F010E9416022196C430D10564
:1007D00079F7C601DF91CF911F910F91FF90EF90B4
:1007E000DF90CF900C94B103CF92DF92EF92FF9203
:1007F0000F931F93CF93DF93EC01F62E642F8C8120
:100800000E9416028D818F3F19F060E00E9416024F
:100810000F2D10E08F8584FF25C06E0187E0C80E84
:10082000D11CF12CE12CB8010E2C02C075956795F6
:100830000A94E2F76170F60181916F010E9416023D
:10084000FFEFEF1AFF0A88E0E816F10461F7CE0126
:10085000DF91CF911F910F91FF90EF90DF90CF909C
:100860000C94B103B80184E0759567958A95E1F71A
:10087000CE010E94C7036F2DCE01DF91CF911F9152
:100880000F91FF90EF90DF90CF900C94C70340E062
:10089000682F8FEE92E00C94F40381E00E944704ED
:1008A0008BE39FE10197F1F70895CF93DF938230B7
:1008B00029F49091FE0298609093FE0280930203C7
:1008C0001092030380E48093040380E18093050386
:1008D00080E58093060361E08091F3020E9462024A
:1008E0008091F4028F3F19F061E00E94620261E0A2
:1008F0008091F5020E946202CFEED2E09E012F5E4F
:1009000032408091FE0284FD0BC084E090E021968D
:100910002817390744F461E08E810E946202EECF0D
:1009200088E090E0F4CF8BE39DE00197F1F760E081
:100930008091F3020E94160260E08091F5020E940D
:1009400016028091F4028F3F19F060E00E941602B7
:100950008091FE0284FD34C063E08FEE92E00E943D
:10096000C703CBE4D6E4CE010197F1F763E08FEE45
:1009700092E00E94C7032197F1F763E08FEE92E0C7
:100980000E94C70383E592E00197F1F762E08FEEE2
:1009900092E00E94C7038091FE0280620E94470499
:1009A00084E08093FF028CE00E9447040E944D0483
:1009B00082E08093000386E0DF91CF910C9447049E
:1009C00080620E9447048BE496E40197F1F78091DE
:1009D000FE0280620E94470483E592E00197F1F7EE
:1009E0008091FE0280620E944704D5CF909102035D
:1009F000891710F08FEF890FE82FF0E0E151FD4FDC
:100A0000848980680C94470441E00E94F40381E0EB
:100A100090E00895FB0101900020E9F73197AF01C4
:100A2000461B570BDC01ED91FC910280F381E02D18
:100A3000099442E050E066E371E088E092E00C94B3
:100A400009011F920F920FB60F9211242F933F931B
:100A50004F935F936F937F938F939F93AF93BF93C6
:100A6000EF93FF9388E092E00E948701FF91EF915E
:100A7000BF91AF919F918F917F916F915F914F91B6
:100A80003F912F910F900FBE0F901F9018951F92BE
:100A90000F920FB60F9211242F938F939F93EF9382
:100AA000FF93E0911802F09119028081E0911E02FB
:100AB000F0911F0282FD1BC09081809121028F5F07
:100AC0008F7320912202821741F0E0912102F0E021
:100AD000E85FFD4F958F80932102FF91EF919F91E9
:100AE0008F912F910F900FBE0F901F9018958081BE
:100AF000F4CF1F920F920FB60F9211242F933F93B2
:100B00008F939F93AF93BF938091FC019091FD01D0
:100B1000A091FE01B091FF013091FB0123E0230F72
:100B20002D3758F50196A11DB11D2093FB0180932F
:100B3000FC019093FD01A093FE01B093FF01809111
:100B4000000290910102A0910202B091030201966D
:100B5000A11DB11D8093000290930102A093020297
:100B6000B0930302BF91AF919F918F913F912F91CD
:100B70000F900FBE0F901F90189526E8230F029636
:100B8000A11DB11DD2CF1F920F920FB60F9211244B
:100B90002F933F934F935F936F937F938F939F9385
:100BA000AF93BF93EF93FF93E0910602F09107029A
:100BB000309749F0A685B7858585968D91FF14C03D
:100BC0009C918923A1F4FF91EF91BF91AF919F91E7
:100BD0008F917F916F915F914F913F912F910F90E6
:100BE0000FBE0F901F9018959C91892361F7A389E0
:100BF000B4899C918589809589238C93868997896E
:100C00000197F1F7608D718DA685B785558538E020
:100C100020E0CB010197F1F7822F90E09595879521
:100C2000282F4C91452309F02068315091F7868D8B
:100C300081FD20958091050290E001968F739927A0
:100C400030910402381799F0A0910502B0E0A55444
:100C5000BE4F2C9380930502828D938D0197F1F7FF
:100C6000A389B4898C919589892B8C93ACCF868D7F
:100C70008160868FF1CF1F920F920FB60F921124D1
:100C80002F933F934F935F936F937F938F939F9394
:100C9000AF93BF93CF93DF93EF93FF938091BA010C
:100CA000C091C902D0E087FF24C010928500109245
:100CB00084008091BA018F5F8093BA018091BA015C
:100CC000082E000C990B8C179D0724F48091BA0113
:100CD0008C30C4F18091840090918500049680341A
:100CE0009C4908F47AC08091840090918500049614
:100CF00076C08091BA01082E000C990B8C179D07C5
:100D0000C4F6E091BA018E2FEE0F990BFC01EE0FA5
:100D1000FF1FE80FF91FEB55FD4F808186FFC9CFFC
:100D2000E091BA018E2FEE0F990BFC01EE0FFF1F21
:100D3000E80FF91FEB55FD4F808160E08F730E9433
:100D40001602B7CF2091840030918500E091BA015E
:100D50008E2FEE0F990BFC01EE0FFF1FE80FF91F0E
:100D6000EB55FD4F81819281820F931F90938900F3
:100D700080938800E091BA018E2FEE0F990BFC0151
:100D8000EE0FFF1FE80FF91FEB55FD4F808186FF27
:100D900011C0E091BA018E2FEE0F990BFC01EE0FFE
:100DA000FF1FE80FF91FEB55FD4F808161E08F7346
:100DB0000E941602FF91EF91DF91CF91BF91AF9109
:100DC0009F918F917F916F915F914F913F912F9163
:100DD0000F900FBE0F901F90189580E49CE99093A0
:100DE0008900809388008FEF8093BA01E3CF10923F
:100DF0000B0210920A0288EE93E0A0E0B0E080932C
:100E00000C0290930D02A0930E02B0930F028AE0A1
:100E100091E0909309028093080285EC90E0909312
:100E200015028093140284EC90E090931702809353
:100E3000160280EC90E0909319028093180281ECE6
:100E400090E090931B0280931A0282EC90E09093C2
:100E50001D0280931C0286EC90E090931F02809309
:100E60001E0210922102109222021092230210926E
:100E700024028091C9028C3008F0DAC091E0980F0A
:100E80009093C9028093070390E0FC01EE0FFF1FCF
:100E9000E80FF91FEB55FD4F88EB9BE092838183B0
:100EA0001092F2021092F1028EE291E09093F00221
:100EB0008093EF028CE08093F3028FEF8093F40233
:100EC0008BE08093F50285E08093F60284E08093C6
:100ED000F70283E08093F80282E08093F902109297
:100EE000FA021092FB021092FC021092FD02109284
:100EF000FE0281E00E9455041092D3021092D202A9
:100F000088EE93E0A0E0B0E08093D4029093D50205
:100F1000A093D602B093D7028CE191E09093D102D6
:100F20008093D0021092E7021092E6021092E9023A
:100F30001092E8021092EB021092EA021092ED0277
:100F40001092EC026091EE026E7F6D7F6093EE0274
:100F50006695617081E068278AE00E94160261E070
:100F60008AE00E946202E8EBF0E0E491E093E002A4
:100F7000E4EAF0E0E491F0E0EE0FFF1FE057FF4FEE
:100F8000859194919093E2028093E10260E089E080
:100F90000E9462028091EE0281FD04C061E089E05E
:100FA0000E94160289E08093DC02E7EBF0E0E49116
:100FB000E093DD02E3EAF0E0E491F0E0EE0FFF1FE2
:100FC000EA57FF4F859194919093DF028093DE0260
:100FD0001092CB021092CA021092CD021092CC0253
:100FE0001092CF021092CE0261E070E090E080E0BB
:100FF0000E94DF0D009701F19093CB028093CA020B
:101000001092CD021092CC022091CE023091CF02EC
:10101000232B11F4FC0110821092CF021092CE0209
:1010200068E371E08091CA029091CB020C94A50E06
:101030008FEF8093070334CF8091CA029091CB0247
:10104000009711F00E94560D1092CB021092CA0226
:101050001092CF021092CE021092CD021092CC02CA
:101060000895789484B5826084BD84B5816084BD20
:1010700085B5826085BD85B5816085BD80916E0036
:10108000816080936E001092810080918100826067
:1010900080938100809181008160809381008091A4
:1010A00080008160809380008091B1008460809393
:1010B000B1008091B00081608093B00080917A008F
:1010C000846080937A0080917A00826080937A00B5
:1010D00080917A00816080937A0080917A008068A4
:1010E00080937A001092C10082E00E94550464E669
:1010F00070E080E090E00E94CD0261E081E00E941B
:101100006202809107038C3008F051C061E08DE0ED
:101110000E94620280910703282F30E0F901EE0F50
:10112000FF1FE20FF31FEB55FD4F9081907C9D60F8
:10113000908310920803109209032CE0622F0E9402
:10114000790C829FB001112430E020E0AB01420F06
:10115000531FFA01EE0FFF1FE40FF51FEB55FD4F74
:10116000908196FD16C02F5F3F4F2C30310571F7EF
:1011700081110FC01092800082E080938100109254
:10118000850010928400B19A80916F0082608093F4
:101190006F00E09107038E2F90E0FC01EE0FFF1F20
:1011A000E80FF91FEB55FD4F80818064808361E07B
:1011B00086E00E94620260E08EE00E94620261E0CE
:1011C00086E00E94620261E087E00E946202109263
:1011D000EB021092EA021092E9021092E8021092D9
:1011E000E7021092E6028DE991E09093ED02809380
:1011F000EC029091DC02963108F047C02DEB30E014
:101200003093E7022093E6022BE931E03093E902C4
:101210002093E8022CE231E03093EB022093EA02C3
:101220002091680084E0983048F031E09E3008F466
:1012300030E081E001C0880F3A95EAF7822B809375
:1012400068002DE630E0983050F02BE630E09E301C
:1012500030F02CE630E0963110F030E020E03093B2
:10126000E4022093E302292F30E0983008F028C1EF
:1012700081E001C0880F9A95EAF78093E50280919A
:10128000EC029091ED020197F1F78091EA029091C2
:10129000EB02892B49F1E0910602F091070222E06E
:1012A000E03DF20709F1309739F0A389B4899C91A8
:1012B0008589809589238C938091EE028E7F80931F
:1012C000EE02109205021092040280ED92E09093DB
:1012D000070280930602E091E302F091E40280812C
:1012E0009091E502892B8083E0911802F091190218
:1012F00082E08083E0911402F09115021082E09167
:101300001602F09117028FEC808310922002E09178
:101310001C02F0911D0286E08083E0911A02F09198
:101320001B02808180618083E0911A02F0911B0290
:10133000808188608083E0911A02F0911B02808195
:1013400080688083E0911A02F0911B0280818F7D7A
:101350008083CC24CA9483E0D82EE12CF12CC0E009
:10136000D0E08EE00E9493028EE00E949302BC01C6
:10137000990F880B990B0E94B00A20E030E040EAF8
:1013800050E40E94EB0A20E030E048EC52E40E9476
:10139000EB0A20E030E040E85AE30E94EB0A4B0100
:1013A0005C0162E370E080E090E00E94CD02C50144
:1013B000B4010E94430C6C3271400CF48EC080E08A
:1013C0000E94930224EB30E0DC010E94990CA701FB
:1013D00096010E94A90BC9010E948D0062E370E092
:1013E00080E090E00E94CD0261E087E00E9416025A
:1013F0000E944D0480E00E94F60469E371E08FEEE4
:1014000092E00E940A0581E00E94F60467E471E020
:101410008FEE92E00E940A0568EC70E080E090E0B8
:101420000E94CD020E944D046CE571E08FEE92E0C7
:101430000E940A0562E370E080E090E00E94CD0225
:1014400061E086E00E94160268EC70E080E090E0C7
:101450000E94CD0260E086E00E94160268EC70E017
:1014600080E090E00E94CD026DE671E088E092E0BD
:101470000E940A056AE771E088E092E00E940A058E
:1014800068EC70E080E090E00E94CD026AE188E0C4
:1014900092E00E94A9010E94190568EC70E080E0CA
:1014A00090E00E94CD020E941905209709F459CFBF
:1014B0000E947301882309F454CF0E94000051CF89
:1014C0009E3040F42850310981E001C0880F2A95F0
:1014D000EAF7D3CE2E503109F7CF60E087E00E94C3
:1014E00016028FE590E00E948D000E944D0480E07E
:1014F0000E94F6046BE971E08FEE92E00E940A050B
:1015000081E00E94F6046AEA71E08FEE92E00E94A8
:101510000A05CBCF8091CA029091CB02009711F0BF
:101520000E94560D8CE191E09093D1028093D002FD
:101530008091060290910702805D924071F4E091E3
:10154000E302F091E40290818091E5028095892385
:10155000808310920702109206020895E89409C051
:1015600097FB3EF490958095709561957F4F8F4FD6
:101570009F4F9923A9F0F92F96E9BB279395F695EC
:10158000879577956795B795F111F8CFFAF4BB0F6A
:1015900011F460FF1BC06F5F7F4F8F4F9F4F16C0CE
:1015A000882311F096E911C0772321F09EE8872F58
:1015B000762F05C0662371F096E8862F70E060E014
:1015C0002AF09A95660F771F881FDAF7880F96958D
:1015D000879597F908950E94FE0A0C946F0B0E945C
:1015E000610B38F00E94680B20F0952311F00C94E9
:1015F000580B0C945E0B11240C94A30B0E94800BCF
:1016000070F3959FC1F3950F50E0551F629FF00155
:10161000729FBB27F00DB11D639FAA27F00DB11D6E
:10162000AA1F649F6627B00DA11D661F829F2227F7
:10163000B00DA11D621F739FB00DA11D621F839F7E
:10164000A00D611D221F749F3327A00D611D231F54
:10165000849F600D211D822F762F6A2F11249F57A2
:1016600050409AF0F1F088234AF0EE0FFF1FBB1FA5
:10167000661F771F881F91505040A9F79E3F510564
:1016800080F00C94580B0C94A30B5F3FE4F3983E4E
:10169000D4F3869577956795B795F795E7959F5F0E
:1016A000C1F7FE2B880F911D9695879597F90895A0
:1016B00097F99F6780E870E060E008959FEF80EC05
:1016C000089500240A9416161706180609060895A8
:1016D00000240A9412161306140605060895092E0E
:1016E0000394000C11F4882352F0BB0F40F4BF2B7D
:1016F00011F460FF04C06F5F7F4F8F4F9F4F0895BD
:1017000057FD9058440F551F59F05F3F71F04795B2
:10171000880F97FB991F61F09F3F79F08795089597
:10172000121613061406551FF2CF4695F1DF08C0B6
:10173000161617061806991FF1CF869571056105D3
:1017400008940895E894BB2766277727CB0197F97B
:101750000895052E97FB1EF400940E94C00B57FDC0
:1017600007D00E94120C07FC03D04EF40C94C00B5F
:1017700050954095309521953F4F4F4F5F4F0895BD
:1017800090958095709561957F4F8F4F9F4F0895ED
:101790000E94340CA59F900DB49F900DA49F800DC6
:1017A000911D11240895B7FF0C94C80B0E94C80B1B
:1017B000821B930B08952F923F924F925F926F92EC
:1017C0007F928F929F92AF92BF92CF92DF92EF92D1
:1017D000FF920F931F93CF93DF93CDB7DEB7CA1B52
:1017E000DB0B0FB6F894DEBF0FBECDBF09942A887D
:1017F000398848885F846E847D848C849B84AA8425
:10180000B984C884DF80EE80FD800C811B81AA81B1
:10181000B981CE0FD11D0FB6F894DEBF0FBECDBF7C
:10182000ED010895A1E21A2EAA1BBB1BFD010DC0FC
:10183000AA1FBB1FEE1FFF1FA217B307E407F50780
:1018400020F0A21BB30BE40BF50B661F771F881F5C
:10185000991F1A9469F760957095809590959B01F2
:10186000AC01BD01CF010895A29FB001B39FC0019B
:10187000A39F700D811D1124911DB29F700D811DBC
:101880001124911D08950E944A0C6894B1110C9482
:10189000A30B08950E94880B88F09F5798F0B92FEA
:1018A0009927B751B0F0E1F0660F771F881F991F95
:1018B0001AF0BA95C9F714C0B13091F00E94A20B8A
:1018C000B1E008950C94A20B672F782F8827B85F9A
:1018D00039F0B93FCCF3869577956795B395D9F7ED
:1018E0003EF490958095709561957F4F8F4F9F4FF7
:1018F0000895991B79E004C0991F961708F0961B6C
:10190000881F7A95C9F78095089597FB072E16F4DE
:10191000009407D077FD09D00E94A00C07FC05D0E9
:101920003EF4909581959F4F0895709561957F4FF6
:1019300008950E94340CB7FF0895821B930B0895FD
:10194000AA1BBB1B51E107C0AA1FBB1FA617B707E5
:1019500010F0A61BB70B881F991F5A95A9F7809501
:101960009095BC01CD010895EE0FFF1F0590F491F5
:10197000E02D09940F931F93CF93DF93823091054D
:1019800010F482E090E0E0910C03F0910D0330E060
:1019900020E0B0E0A0E0309799F42115310509F47A
:1019A0004AC0281B390B24303105D8F58A819B8128
:1019B0006115710589F1FB0193838283FE0111C0DA
:1019C000408151810281138148175907E0F048177F
:1019D000590799F4109761F012960C931297139689
:1019E0001C933296CF01DF91CF911F910F910895F3
:1019F00000930C0310930D03F4CF2115310551F022
:101A00004217530738F0A901DB019A01BD01DF013C
:101A1000F801C1CFEF01F9CF90930D0380930C0330
:101A2000CDCFFE01E20FF31F819391932250310934
:101A300039832883D7CF20910A0330910B03232BBE
:101A400041F4209102013091030130930B03209364
:101A50000A0320910001309101012115310541F463
:101A60002DB73EB74091040150910501241B350B61
:101A7000E0910A03F0910B03E217F307A0F42E1B89
:101A80003F0B2817390778F0AC014E5F5F4F2417E2
:101A9000350748F04E0F5F1F50930B0340930A0326
:101AA000819391939FCFF0E0E0E09CCFCF93DF93C1
:101AB0000097E9F0FC01329713821282A0910C0387
:101AC000B0910D03ED0130E020E01097A1F42081EA
:101AD0003181820F931F20910A0330910B03281745
:101AE000390709F061C0F0930B03E0930A03DF911B
:101AF000CF910895EA01CE17DF07E8F54A815B81AF
:101B00009E0141155105B1F7E901FB83EA83499133
:101B10005991C40FD51FEC17FD0761F480819181A5
:101B20000296840F951FE9019983888382819381AE
:101B30009B838A83F0E0E0E012968D919C9113974D
:101B40000097B9F52D913C911197CD010296820F26
:101B5000931F20910A0330910B032817390739F698
:101B6000309751F510920D0310920C03B0930B03B4
:101B7000A0930A03BCCFD383C28340815181840FD9
:101B8000951FC817D90761F44E5F5F4F888199810F
:101B9000480F591F518340838A819B81938382839D
:101BA0002115310509F0B0CFF0930D03E0930C033C
:101BB0009ECFFD01DC01C0CF13821282D7CFB0E0EF
:101BC000A0E0E5EEFDE00C94DD0B8C01009751F4F4
:101BD000CB010E94BA0C8C01C801CDB7DEB7E0E1A1
:101BE0000C94F90BFC01E60FF71F9C012250310900
:101BF000E217F30708F49DC0D901CD91DC9111974C
:101C0000C617D70798F0C530D10530F3CE01049739
:101C10008617970708F3C61BD70B2297C193D1935A
:101C20006D937C93CF010E94560DD6CF5B01AC1A09
:101C3000BD0A4C018C0E9D1EA0910C03B0910D03AA
:101C4000512C412CF12CE12C109731F580910A0395
:101C500090910B038815990509F05CC0461657064C
:101C600008F058C08091000190910101009741F463
:101C70008DB79EB74091040150910501841B950BCF
:101C8000E817F90708F055C0F0930B03E0930A0337
:101C9000F90171836083A0CF8D919C911197129669
:101CA0006C90129713967C901397A815B90559F567
:101CB0006C0142E0C40ED11CCA14DB0420F1AC015B
:101CC0004A195B09DA011296159780F062827382D5
:101CD00051834083D9016D937C93E114F10471F039
:101CE000D7011396FC93EE93129776CF22968C0F22
:101CF0009D1FF90191838083F301EFCFF0930D03D2
:101D0000E0930C0369CF4816590608F42C017D01B5
:101D1000D3019ACFCB010E94BA0C7C01009749F005
:101D2000AE01B8010E949C0EC8010E94560D8701A9
:101D300053CF10E000E050CFFB01DC0102C0019066
:101D40000D9241505040D8F70895FB01DC010190FD
:101D50000D920020E1F7089510E0C2E6D0E004C043
:101D6000FE010E94B40C2196C336D107C9F7F8943E
:021D7000FFCFA3
:101D720000000E03800000000000A90109013601E5
:101D8200F60167014501590100000000180309012D
:101D9200AE03170374038C03FF0200000000040566
:101DA2000901AE03AD030D0A002020474153204C28
:101DB20045414B45442000205455524E204F464643
:101DC200205448452053544F564520002053656EF9
:101DD20064696E6720534D532E2E2E2000474153C7
:101DE200204C45414B4147450D00476F20686F6DC0
:101DF2006520616E64207475726E206F6666207451
:101E020068652073746F7665210D002020434C4570
:101E120041522041495220202000202020414C4C98
:0A1E22002053414645202020000017
:00000001FF
